:020000020000FC
:020000003AC5FF
:040018000C94320111
:040028000C945602DC
:040034000C94EA033B
:100048000C949003020F131F0895FF27EE27319693
:10005800021B1040E0F73197020F202F8F010895FF
:100068005D9BFECF0CB908955F9BFECF0CB1089540
:10007800102F20E017FF04C001E30E94340003C0E2
:1000880000E30E943400110F2395283099F7089552
:10009800980137FF07C00DE20E943400215030401C
:1000A800209530954427B7E2A0E143952A1B3B0BE6
:1000B800E0F74A952A0F3B1F00E3040F0E94340023
:1000C8004427B3E0A8EE43952A1B3B0BE0F74A957B
:1000D8002A0F3B1F00E3040F0E9434004427B0E0BE
:1000E800A4E643952A1B3B0BE0F74A952A0F3B1FD2
:1000F80000E3040F0E9434004427B0E0AAE04395CF
:100108002A1B3B0BE0F74A952A0F3B1F00E3040F1D
:100118000E9434004427B0E0A1E043952A1B3B0B22
:10012800E0F74A952A0F3B1F00E3040F0E943400B2
:10013800089598014427B7E2A0E143952A1B3B0B99
:10014800E0F74A952A0F3B1F00E3040F0E94340092
:100158004427B3E0A8EE43952A1B3B0BE0F74A95EA
:100168002A0F3B1F00E3040F0E9434004427B0E02D
:10017800A4E643952A1B3B0BE0F74A952A0F3B1F41
:1001880000E3040F0E9434004427B0E0AAE043953E
:100198002A1B3B0BE0F74A952A0F3B1F00E3040F8D
:1001A8000E9434004427B0E0A1E043952A1B3B0B92
:1001B800E0F74A952A0F3B1F00E3040F0E94340022
:1001C8000895202F442714E64395211BE8F74A9504
:1001D800210F00E3040F0E94340044271AE04395DE
:1001E800211BE8F74A95210F00E3040F0E94340011
:1001F800442711E04395211BE8F74A95210F00E3B6
:10020800040F0E9434000895202F27FF05C00DE237
:100218000E9434002A952095442714E64395211B13
:10022800E8F74A95210F00E3040F0E9434004427A1
:100238001AE04395211BE8F74A95210F00E3040FC4
:100248000E943400442711E04395211BE8F74A95A2
:10025800210F00E3040F0E94340008950F921F92AB
:100268002F923F920F930FB70F931F9300907B002D
:1002780010907C0001E0000E00E0101E00927B0050
:1002880010927C0000918C00013051F00430B9F0DC
:10029800039500938C002FC000917F0000FD0FC0D4
:1002A800039500938C0006B417B40092770010925F
:1002B800780000917F00016000937F001CC001E07E
:1002C80000938C00009077001090780026B437B423
:1002D8002018310807E1301670F02092790030922A
:1002E8007A0000917F000E7F00937F0000E00DBD33
:1002F8000CBD0E94C7040E945B031F910F910FBFA2
:100308000F913F902F901F900F901895902E30903E
:10031800700040906F0050906E007894609070006C
:1003280070906F0080906E00F894631874088508C8
:10033800691498F37894089503BD0895053660F418
:100348001FEF019F002D112D24E60E942900223362
:1003580008F003950E94A001089504EA06BF06B7B5
:1003680007FFFDCF089504E906BF089503B904E81F
:1003780006BF06B707FFFDCF089500FD02C004E8D9
:1003880001C004EC06BF06B707FFFDCF03B108950F
:100398000E94B10100ED0E94BA010BE30E94BA016C
:1003A8000E94B10101ED0E94BA0101E00E94C10161
:1003B8000093600001E00E94C1010093610001E028
:1003C8000E94C1010093620001E00E94C1010093F4
:1003D800630001E00E94C1010093640001E00E94F3
:1003E800C1010093650001E00E94C101009366000D
:1003F80001E00E94C1010093670001E00E94C10171
:100408000093680001E00E94C1010093690001E0C7
:100418000E94C10100936A0001E00E94C10100939B
:100428006B0001E00E94C10100936C0000E00E9493
:10043800C10100936D000E94B70108950E94B101A7
:1004480000ED0E94BA0107E40E94BA010E94B101BE
:1004580001ED0E94BA0101E00E94C10100936C0005
:1004680000E00E94C10100936B000E94B70108954B
:100478000E94B10100ED0E94BA010BE30E94BA018B
:100488000E94B10101ED0E94BA0101E00E94C10180
:100498000093600000E00E94C101009361000E9487
:1004A800B70108950F930FB70F9301E00090700004
:1004B800000E0092700068F400E010906F00101EAB
:1004C80010926F0030F420906E00201E20926E0073
:1004D80000F40F910FBF0F9118950E9422021091FE
:1004E8006C00712F77FD7195743110F403E0089555
:1004F80017FF06C07B3410F404E0089505E0089562
:100508007B3410F402E0089501E008950E9422026D
:10051800A0906C00A7FCA19401E00E948A010E94AF
:100528002202B0906C00B7FCB194AB0CA7940A2DD2
:10053800089501E0800F00E0901F0E9471020617E5
:1005480071F0013041F0023059F0033091F004307D
:10055800B9F0053011F061E0089565E00895089557
:100568006130E9F389939993699380E090E062E0C0
:10057800089589939993699380E090E063E00895E2
:10058800653069F389939993699380E090E064E01A
:10059800089581509040903061F4803051F48991F1
:1005A80099916991633029F4903019F4863908F4E7
:1005B80066E06130D1F0623019F1643009F16530DC
:1005C800A1F0663079F1903049F4863438F400E2CD
:1005D80000938E000EE400938D00089500E717E164
:1005E80000938E0010938D000895903011F485309B
:1005F80090F000E21EE400938E0010938D000895A1
:100608009030B9F7853038F004E710E400938E0095
:1006180010938D00089500ED17E000938E0010935D
:100628008D00089500E21EE4282F392F220F331F72
:10063800220F331F220F331F220F331F220F331FA6
:10064800220F331F021B130B00938E0010938D0093
:100658000EE30BBB08951091880013951093880042
:100668001130F9F01330B8F40C2F1D2FD0E0C8EC7E
:10067800299139914991C02FD12F461739F0899383
:100688009993699329933993499305C0820F931FCE
:10069800899399936993D0E0C8EC8991999169916C
:1006A8000895D0E0C8EC0E947102602F08950E945E
:1006B800760310918800113049F0123080F408EA6E
:1006C80011E600938E0010938D0008950E949D02FC
:1006D80008EA11E600938E0010938D0008950E9499
:1006E800CD020895613049F0623051F0633059F01D
:1006F800643061F0653069F0089504E00BBB08953B
:1007080002E00BBB089508E00BBB089500E20BBBA9
:10071800089500E10BBB08950F921F922F923F920C
:100728004F925F920F930FB70F931F930090700033
:1007380010906F0020906E0030907300409072000F
:100748005090710000927300109272002092710014
:1007580003181408250802E0101668F100927400C6
:10076800109275002092760000907B0010907C001B
:1007780000927D0010927E0000E000937B000093C1
:100788007C0000E408B900917F00046000937F00BA
:1007980008E508B90E942F0300917F0004600093C8
:1007A8007F000DE600938D0000E600938E000E9406
:1007B8009D040E94B2041F910F910FBF0F915F908B
:1007C8004F903F902F901F900F90189500918000A8
:1007D800013019F0023069F030C00CB1053519F05C
:1007E8000A3A09F018950093810002E0009380000E
:1007F800189500918100053531F00A3A79F003E443
:100808000E943400FCCF0CB1003189F0013179F03D
:10081800023169F0033159F00C9417040CB10B3A0A
:1008280031F00C94170401E00093800018950093B0
:10083800820003E00093800018950CB100938300B8
:1008480001E00093800000918100053519F00A3A13
:1008580029F1189500918200003139F0013151F0E9
:10086800023171F0033189F01895009183000E94DC
:10087800A201189503E50E94340000E003BD189515
:100888000091830000938F00189500918F000093CA
:100898008D000091830000938E00189500918200CE
:1008A8000B3A09F018950E94880418950E943C029A
:1008B8000BEB0E94340001EA0E94340000916000B2
:1008C8000E9434000BEB0E94340002EA0E943400BC
:1008D800009161000E94340008950E9422020BEBEF
:1008E8000E94340003EA0E94340000916C000E94C8
:1008F80034000BEB0E94340004EA0E94340000919B
:100908006D000E94340008950BEB0E94340005EA44
:100918000E94340000917C000E9434000BEB0E947E
:10092800340006EA0E94340000917B000E943400E3
:1009380008950BEB0E94340007EA0E9434000091EE
:1009480075000E9434000BEB0E94340008EA0E94F4
:100958003400009174000E94340008950BEB0E944B
:10096800340009EA0E94340000917E000E9434009D
:100978000BEB0E9434000AEA0E94340000917D00CB
:100988000E943400089500917F0007FD3CC000914B
:100998008E0010918D002091790030917A00021B11
:1009A800130B0FB702FD4EC00090700010906F003F
:1009B80020906E0000928700109286002092850099
:1009C80040E043BD1031B8F1103198F41695079501
:1009D80016950795169507951695079516950795F3
:1009E80000938400C09A00917F00006800937F0004
:1009F80008954FEF10938400C09A00917F0000681B
:100A080000937F000895002703BD009070001090A8
:100A18006F0020906E0030908700409086005090C4
:100A2800850003181408250860908400112019F423
:100A3800061408F40895C09800917F000F7700937A
:100A48007F0008950150104000951095103260F411
:100A58001695079516950795169507951695079572
:100A68001695079503BD08954FEF43BD08950FE50B
:100A78000DBF08E00EBF07E610E010BD09B908E990
:100A88000AB906E800BD01E0009380000027009342
:100A98008100009382000093830001B3006801BBCA
:100AA80009E605BD07B3016007BBC09800E001B9BE
:100AB80002E100B904E006BF00000BE003BF00E05C
:100AC80002BF09EF0CBF00270093700000936F006E
:100AD80000936E0009B7026009BF00E00FBD02E095
:100AE8000EBD0027009377000093780000937900EB
:100AF80000937A0000937B0000937C0009B70062A2
:100B080009BF0027009373000093720000937100DF
:100B180000937400009375000093760008B1086490
:100B280008B900B7077F00BFBB980E94B10100ED6C
:100B38000E94BA0109E10E94BA0107E00E94BA01C5
:100B480000E00E94BA0108E00E94BA0108E00E9491
:100B5800BA0100E00E94BA0100E00E94BA0100E078
:100B68000E94BA0100E00E94BA0100E00E94BA01A6
:100B780000E00E94BA0100E00E94BA0100E00E9471
:100B8800BA0100E00E94BA0100E00E94BA0100E048
:100B98000E94BA0100E00E94BA0100E00E94BA0176
:100BA80000E00E94BA0100E00E94BA0100E00E9441
:100BB800BA0100E00E94BA0100E00E94BA0100E018
:100BC8000E94BA0100E00E94BA0100E00E94BA0146
:100BD80000E00E94BA0100E00E94BA0100E00E9411
:100BE800BA0100E00E94BA010E94B10100ED0E9422
:100BF800BA0107E30E94BA0100E00E94BA0100E0CE
:100C08000E94BA010E94B10100ED0E94BA0103E6F8
:100C18000E94BA0100E00E94BA0100E00E94BA01F5
:100C280000E00E94BA0100E00E94BA0100E00E94C0
:100C3800BA0100E00E94BA0100E00E94BA0100E097
:100C48000E94BA0102E00E94BA0100E00E94BA01C3
:100C58000E94B10100ED0E94BA0104E70E94BA01A6
:100C680000E00E94BA010E94B7010E94B10100EDA4
:100C78000E94BA0109E10E94BA0107E00E94BA0184
:100C880000E00E94BA0108E00E94BA0108E00E9450
:100C9800BA0100E00E94BA0100E00E94BA0100E037
:100CA8000E94BA0100E00E94BA0100E00E94BA0165
:100CB80000E00E94BA0100E00E94BA0100E00E9430
:100CC800BA0100E00E94BA0100E00E94BA0100E007
:100CD8000E94BA0100E00E94BA0100E00E94BA0135
:100CE80000E00E94BA0100E00E94BA0100E00E9400
:100CF800BA0100E00E94BA0100E00E94BA0100E0D7
:100D08000E94BA0100E00E94BA0100E00E94BA0104
:100D180000E00E94BA0100E00E94BA0100E00E94CF
:100D2800BA0100E00E94BA010E94B10100ED0E94E0
:100D3800BA0107E30E94BA0100E00E94BA0100E08C
:100D48000E94BA010E94B10100ED0E94BA0103E6B7
:100D58000E94BA0100E00E94BA0100E00E94BA01B4
:100D680000E00E94BA0100E00E94BA0100E00E947F
:100D7800BA0100E00E94BA0100E00E94BA0100E056
:100D88000E94BA0102E00E94BA0100E00E94BA0182
:100D98000E94B10100ED0E94BA0104E70E94BA0165
:100DA80000E00E94BA010E94B7010E94B10100ED63
:100DB8000E94BA0109E10E94BA0107E00E94BA0143
:100DC80000E00E94BA0108E00E94BA0108E00E940F
:100DD800BA0100E00E94BA0100E00E94BA0100E0F6
:100DE8000E94BA0100E00E94BA0100E00E94BA0124
:100DF80000E00E94BA0100E00E94BA0100E00E94EF
:100E0800BA0100E00E94BA0100E00E94BA0100E0C5
:100E18000E94BA0100E00E94BA0100E00E94BA01F3
:100E280000E00E94BA0100E00E94BA0100E00E94BE
:100E3800BA0100E00E94BA0100E00E94BA0100E095
:100E48000E94BA0100E00E94BA0100E00E94BA01C3
:100E580000E00E94BA0100E00E94BA0100E00E948E
:100E6800BA0100E00E94BA010E94B10100ED0E949F
:100E7800BA0107E30E94BA0100E00E94BA0100E04B
:100E88000E94BA010E94B10100ED0E94BA0103E676
:100E98000E94BA0100E00E94BA0100E00E94BA0173
:100EA80000E00E94BA0100E00E94BA0100E00E943E
:100EB800BA0100E00E94BA0100E00E94BA0100E015
:100EC8000E94BA0102E00E94BA0100E00E94BA0141
:100ED8000E94B10100ED0E94BA0104E70E94BA0124
:100EE80000E00E94BA010E94B701D0E0C8EC63E0BC
:100EF8008AE090E010E0109388000EE30ABB002718
:100F080000937F00009388000AEF0E948A010AEF8D
:100F18000E948A010AEF0E948A010AEF0E948A0150
:100F28000AEF0E948A010AEF0E948A010AEF0E94D2
:100F38008A010AEF0E948A0104E603BDFF2778941C
:040F480000C0FFCF17
:00000001FF
