:020000020000FC
:0200000058C1E5
:040028000C94200113
:040034000C94A50083
:100048000C943501902E3090700040906F005090C5
:100058006E0078946090700070906F0080906E00D1
:10006800F894631874088508691498F378940895C7
:100078005D9BFECF0CB908955F9BFECF0CB1089530
:10008800102F20E017FF04C001E30E943C0003C0CA
:1000980000E30E943C00110F2395283099F708953A
:1000A800980137FF07C00DE20E943C002150304004
:1000B800209530954427B7E2A0E143952A1B3B0BD6
:1000C800E0F74A952A0F3B1F00E3040F0E943C000B
:1000D8004427B3E0A8EE43952A1B3B0BE0F74A956B
:1000E8002A0F3B1F00E3040F0E943C004427B0E0A6
:1000F800A4E643952A1B3B0BE0F74A952A0F3B1FC2
:1001080000E3040F0E943C004427B0E0AAE04395B6
:100118002A1B3B0BE0F74A952A0F3B1F00E3040F0D
:100128000E943C004427B0E0A1E043952A1B3B0B0A
:10013800E0F74A952A0F3B1F00E3040F0E943C009A
:1001480008950CB10E943C000DE00E943C000AE0BA
:100158000E943C00189504EA06BF06B707FFFDCFCA
:10016800089504E906BF089503B904E806BF06B771
:1001780007FFFDCF089500FD02C004E801C004ECAC
:1001880006BF06B707FFFDCF03B108950E94AF0071
:1001980000ED0E94B8000BE30E94B8000E94AF0077
:1001A80001ED0E94B80001E00E94BF0000936000CA
:1001B80001E00E94BF000093610001E00E94BF00BF
:1001C8000093620001E00E94BF000093630001E019
:1001D8000E94BF000093640001E00E94BF000093EA
:1001E800650001E00E94BF000093660001E00E94E4
:1001F800BF000093670001E00E94BF000093680001
:1002080001E00E94BF000093690001E00E94BF0066
:1002180000936A0001E00E94BF0000936B0001E0B8
:100228000E94BF0000936C0000E00E94BF00009392
:100238006B000E94B500089541E000907000040E24
:100248000092700068F440E010906F00141E109245
:100258006F0030F420906E00241E20926E0000F48F
:1002680018950090700010906F0020906E003090EC
:1002780073004090720050907100009273001092C9
:100288007200209271000318140825080092740067
:10029800109275002092760000E408B902E30E94EB
:1002A8002600F89408E508B918950FE50DBF08E091
:1002B8000EBF03E310E010BD09B908E90AB906E862
:1002C80000BD04E40E943C000DE00E943C000AE0EE
:0A02D8000E943C00789400C0FFCFA4
:00000001FF
