:020000020000FC
:0200000084C1B9
:040028000C9416011D
:040034000C944F01D8
:100048000C942B01902E3090700040906F005090CF
:100058006E0078946090700070906F0080906E00D1
:10006800F894631874088508691498F378940895C7
:100078005D9BFECF0CB908955F9BFECF0CB1089530
:10008800102F20E017FF04C001E30E943C0003C0CA
:1000980000E30E943C00110F2395283099F708953A
:1000A800980137FF07C00DE20E943C002150304004
:1000B800209530954427B7E2A0E143952A1B3B0BD6
:1000C800E0F74A952A0F3B1F00E3040F0E943C000B
:1000D8004427B3E0A8EE43952A1B3B0BE0F74A956B
:1000E8002A0F3B1F00E3040F0E943C004427B0E0A6
:1000F800A4E643952A1B3B0BE0F74A952A0F3B1FC2
:1001080000E3040F0E943C004427B0E0AAE04395B6
:100118002A1B3B0BE0F74A952A0F3B1F00E3040F0D
:100128000E943C004427B0E0A1E043952A1B3B0B0A
:10013800E0F74A952A0F3B1F00E3040F0E943C009A
:10014800089504EA06BF06B707FFFDCF089504E93E
:1001580006BF089503B904E806BF06B707FFFDCF39
:10016800089500FD02C004E801C004EC06BF06B70C
:1001780007FFFDCF03B108950E94A50000ED0E947E
:10018800AE000BE30E94AE000E94A50001ED0E94A4
:10019800AE0001E00E94B5000093600001E00E94FB
:1001A800B5000093610001E00E94B5000093620071
:1001B80001E00E94B5000093630001E00E94B500D1
:1001C8000093640001E00E94B5000093650001E01F
:1001D8000E94B5000093660001E00E94B5000093FC
:1001E800670001E00E94B5000093680001E00E94EA
:1001F800B5000093690001E00E94B50000936A0011
:1002080001E00E94B50000936B0001E00E94B50078
:1002180000936C0000E00E94B50000936B000E9400
:10022800AB00089541E000907000040E0092700049
:1002380068F440E010906F00141E10926F0030F4C4
:1002480020906E00241E20926E0000F418950090F5
:10025800700010906F0020906E00309073004090F6
:1002680072005090710000927300109272002092F8
:100278007100031814082508009274001092750084
:100288002092760000E408B902E30E942600F89460
:1002980008E508B9189500917700013019F0023087
:1002A80041F00EC002E0009377000CB10093780093
:1002B800189503E0009377000CB100937900189526
:1002C8000CB100937A0001E0009377000091780068
:1002D800053511F00A3AA1F000917900003119F0C2
:1002E800013141F0189501E000937B0000917A00FC
:1002F80003BD189500E000937B0000E003BD18954E
:1003080018950FE50DBF08E00EBF07E610E010BD19
:1003180009B908E90AB906E800BD01E000937700C9
:100328000027009378000093790000937A008F9A51
:1003380009E605BD00E001B902E100B904E006BF25
:1003480000000BE003BF00E002BF09EF0CBF00276D
:100358000093700000936F0000936E000093730089
:10036800009372000093710000937400009375006D
:10037800009376000E94A50000ED0E94AE0009E1FE
:100388000E94AE0007E00E94AE0000E00E94AE00AE
:1003980008E00E94AE0008E00E94AE0000E00E9463
:1003A800AE0000E00E94AE0000E00E94AE0000E057
:1003B8000E94AE0000E00E94AE0000E00E94AE0085
:1003C80000E00E94AE0000E00E94AE0000E00E9443
:1003D800AE0000E00E94AE0000E00E94AE0000E027
:1003E8000E94AE0000E00E94AE0000E00E94AE0055
:1003F80000E00E94AE0000E00E94AE0000E00E9413
:10040800AE0000E00E94AE0000E00E94AE0000E0F6
:100418000E94AE0000E00E94AE0000E00E94AE0024
:1004280000E00E94AE0000E00E94AE0000E00E94E2
:10043800AE000E94A50000ED0E94AE0007E30E94F6
:10044800AE0000E00E94AE0000E00E94AE000E94F4
:10045800A50000ED0E94AE0003E60E94AE0000E099
:100468000E94AE0000E00E94AE0000E00E94AE00D4
:1004780000E00E94AE0000E00E94AE0000E00E9492
:10048800AE0000E00E94AE0000E00E94AE0002E074
:100498000E94AE0000E00E94AE000E94A50000EDA0
:1004A8000E94AE0004E70E94AE0000E00E94AE0089
:1004B8000E94AB000E94A50000ED0E94AE0009E179
:1004C8000E94AE0007E00E94AE0000E00E94AE006D
:1004D80008E00E94AE0008E00E94AE0000E00E9422
:1004E800AE0000E00E94AE0000E00E94AE0000E016
:1004F8000E94AE0000E00E94AE0000E00E94AE0044
:1005080000E00E94AE0000E00E94AE0000E00E9401
:10051800AE0000E00E94AE0000E00E94AE0000E0E5
:100528000E94AE0000E00E94AE0000E00E94AE0013
:1005380000E00E94AE0000E00E94AE0000E00E94D1
:10054800AE0000E00E94AE0000E00E94AE0000E0B5
:100558000E94AE0000E00E94AE0000E00E94AE00E3
:1005680000E00E94AE0000E00E94AE0000E00E94A1
:10057800AE000E94A50000ED0E94AE0007E30E94B5
:10058800AE0000E00E94AE0000E00E94AE000E94B3
:10059800A50000ED0E94AE0003E60E94AE0000E058
:1005A8000E94AE0000E00E94AE0000E00E94AE0093
:1005B80000E00E94AE0000E00E94AE0000E00E9451
:1005C800AE0000E00E94AE0000E00E94AE0002E033
:1005D8000E94AE0000E00E94AE000E94A50000ED5F
:1005E8000E94AE0004E70E94AE0000E00E94AE0048
:1005F8000E94AB000E94A50000ED0E94AE0009E138
:100608000E94AE0007E00E94AE0000E00E94AE002B
:1006180008E00E94AE0008E00E94AE0000E00E94E0
:10062800AE0000E00E94AE0000E00E94AE0000E0D4
:100638000E94AE0000E00E94AE0000E00E94AE0002
:1006480000E00E94AE0000E00E94AE0000E00E94C0
:10065800AE0000E00E94AE0000E00E94AE0000E0A4
:100668000E94AE0000E00E94AE0000E00E94AE00D2
:1006780000E00E94AE0000E00E94AE0000E00E9490
:10068800AE0000E00E94AE0000E00E94AE0000E074
:100698000E94AE0000E00E94AE0000E00E94AE00A2
:1006A80000E00E94AE0000E00E94AE0000E00E9460
:1006B800AE000E94A50000ED0E94AE0007E30E9474
:1006C800AE0000E00E94AE0000E00E94AE000E9472
:1006D800A50000ED0E94AE0003E60E94AE0000E017
:1006E8000E94AE0000E00E94AE0000E00E94AE0052
:1006F80000E00E94AE0000E00E94AE0000E00E9410
:10070800AE0000E00E94AE0000E00E94AE0002E0F1
:100718000E94AE0000E00E94AE000E94A50000ED1D
:100728000E94AE0004E70E94AE0000E00E94AE0006
:100738000E94AB0000E001E000937B0002E009BFEB
:1007480008E408B900E000BF789400C0F89400916C
:100758007B000130D9F7789408EC0E942600F894C1
:100768000E94C00000916500109164000E9454002E
:100778000DE00E943C000AE00E943C007894E6CF1D
:00000001FF
