:020000020000FC
:020000001FC21D
:040018000C949A01A9
:040028000C948501AE
:040034000C94E8013F
:100048000C94BD01020F131F0895FF27EE27319668
:10005800021B1040E0F73197020F202F8F010895FF
:100068005D9BFECF0CB908955F9BFECF0CB1089540
:10007800102F20E017FF04C001E30E94340003C0E2
:1000880000E30E943400110F2395283099F7089552
:10009800980137FF07C00DE20E943400215030401C
:1000A800209530954427B7E2A0E143952A1B3B0BE6
:1000B800E0F74A952A0F3B1F00E3040F0E94340023
:1000C8004427B3E0A8EE43952A1B3B0BE0F74A957B
:1000D8002A0F3B1F00E3040F0E9434004427B0E0BE
:1000E800A4E643952A1B3B0BE0F74A952A0F3B1FD2
:1000F80000E3040F0E9434004427B0E0AAE04395CF
:100108002A1B3B0BE0F74A952A0F3B1F00E3040F1D
:100118000E9434004427B0E0A1E043952A1B3B0B22
:10012800E0F74A952A0F3B1F00E3040F0E943400B2
:10013800089598014427B7E2A0E143952A1B3B0B99
:10014800E0F74A952A0F3B1F00E3040F0E94340092
:100158004427B3E0A8EE43952A1B3B0BE0F74A95EA
:100168002A0F3B1F00E3040F0E9434004427B0E02D
:10017800A4E643952A1B3B0BE0F74A952A0F3B1F41
:1001880000E3040F0E9434004427B0E0AAE043953E
:100198002A1B3B0BE0F74A952A0F3B1F00E3040F8D
:1001A8000E9434004427B0E0A1E043952A1B3B0B92
:1001B800E0F74A952A0F3B1F00E3040F0E94340022
:1001C8000895902E3090700040906F0050906E000F
:1001D80078946090700070906F0080906E00F89432
:1001E800631874088508691498F37894089503BD12
:1001F80008950536A0F41FEF019F002D112D24E668
:100208000E942900223308F003950E94FB000E94F7
:100218009D000DE00E9434000AE00E943400089519
:1002280004EA06BF06B707FFFDCF089504E906BF35
:10023800089503B904E806BF06B707FFFDCF089580
:1002480000FD02C004E801C004EC06BF06B707FFC2
:10025800FDCF03B108950E94140100ED0E941D0115
:100268000BE30E941D010E94140101ED0E941D0173
:1002780001E00E9424010093600001E00E94240133
:100288000093610001E00E9424010093620001E0F4
:100298000E9424010093630001E00E94240100935E
:1002A800640001E00E9424010093650001E00E94BF
:1002B80024010093660001E00E9424010093670076
:1002C80001E00E9424010093680001E00E942401DB
:1002D8000093690001E00E94240100936A0001E094
:1002E8000E94240100936B0001E00E942401009306
:1002F8006C0000E00E94240100936B000E941A0128
:10030800089541E000907000040E0092700068F4B7
:1003180040E010906F00141E10926F0030F420908F
:100328006E00241E20926E0000F4189500917B0048
:1003380000FD0AC006B417B4009277001092780046
:10034800016000937B00189500907700109078006A
:1003580026B437B4201831082092790030927A00F8
:1003680000E00DBD0CBD00917B000E7F00937B006B
:1003780018950090700010906F0020906E003090DB
:1003880073004090720050907100009273001092B8
:10039800720020927100031814082508112099F0A2
:1003A80000927400109275002092760000E408B95B
:1003B80008E508B907E40E9434000DE00E94340003
:1003C8000AE00E943400189500917C00013019F071
:1003D800023041F00EC002E000937C000CB10093A3
:1003E8007D00189503E000937C000CB100937E001B
:1003F80018950CB100937F0001E000937C000091F8
:100408007D00053519F00A3AB1F0189500917E0083
:10041800003119F0013149F0189501E0009380008E
:1004280000917F000E94FD00189500E00093800075
:1004380000E003BD189518950FE50DBF08E00EBF45
:1004480007E610E010BD09B908E90AB906E800BDD9
:1004580001E000937C00002700937D0000937E005C
:1004680000937F0001B3006801BB09E605BD00E009
:1004780001B902E100B904E006BF00000BE003BFC8
:1004880000E002BF09EF0CBF002700937000009343
:100498006F0000936E0009B7026009BF00E00FBD4E
:1004A80002E80EBD0027009377000093780009B793
:1004B800006209BF00270093730000937200009345
:1004C800710000937400009375000093760008B1E2
:1004D800086408B900B7077F00BFBB980E941401E1
:1004E80000ED0E941D0109E10E941D0107E00E9424
:1004F8001D0100E00E941D0108E00E941D0108E0A6
:100508000E941D0100E00E941D0100E00E941D01E3
:1005180000E00E941D0100E00E941D0100E00E9411
:100528001D0100E00E941D0100E00E941D0100E085
:100538000E941D0100E00E941D0100E00E941D01B3
:1005480000E00E941D0100E00E941D0100E00E94E1
:100558001D0100E00E941D0100E00E941D0100E055
:100568000E941D0100E00E941D0100E00E941D0183
:1005780000E00E941D0100E00E941D0100E00E94B1
:100588001D0100E00E941D0100E00E941D0100E025
:100598000E941D0100E00E941D010E94140100ED4F
:1005A8000E941D0107E30E941D0100E00E941D0139
:1005B80000E00E941D010E94140100ED0E941D012F
:1005C80003E60E941D0100E00E941D0100E00E9458
:1005D8001D0100E00E941D0100E00E941D0100E0D5
:1005E8000E941D0100E00E941D0100E00E941D0103
:1005F80000E00E941D0102E00E941D0100E00E942F
:100608001D010E94140100ED0E941D0104E70E94D3
:100618001D0100E00E941D010E941A010E941401A0
:1006280000ED0E941D0109E10E941D0107E00E94E2
:100638001D0100E00E941D0108E00E941D0108E064
:100648000E941D0100E00E941D0100E00E941D01A2
:1006580000E00E941D0100E00E941D0100E00E94D0
:100668001D0100E00E941D0100E00E941D0100E044
:100678000E941D0100E00E941D0100E00E941D0172
:1006880000E00E941D0100E00E941D0100E00E94A0
:100698001D0100E00E941D0100E00E941D0100E014
:1006A8000E941D0100E00E941D0100E00E941D0142
:1006B80000E00E941D0100E00E941D0100E00E9470
:1006C8001D0100E00E941D0100E00E941D0100E0E4
:1006D8000E941D0100E00E941D010E94140100ED0E
:1006E8000E941D0107E30E941D0100E00E941D01F8
:1006F80000E00E941D010E94140100ED0E941D01EE
:1007080003E60E941D0100E00E941D0100E00E9416
:100718001D0100E00E941D0100E00E941D0100E093
:100728000E941D0100E00E941D0100E00E941D01C1
:1007380000E00E941D0102E00E941D0100E00E94ED
:100748001D010E94140100ED0E941D0104E70E9492
:100758001D0100E00E941D010E941A010E9414015F
:1007680000ED0E941D0109E10E941D0107E00E94A1
:100778001D0100E00E941D0108E00E941D0108E023
:100788000E941D0100E00E941D0100E00E941D0161
:1007980000E00E941D0100E00E941D0100E00E948F
:1007A8001D0100E00E941D0100E00E941D0100E003
:1007B8000E941D0100E00E941D0100E00E941D0131
:1007C80000E00E941D0100E00E941D0100E00E945F
:1007D8001D0100E00E941D0100E00E941D0100E0D3
:1007E8000E941D0100E00E941D0100E00E941D0101
:1007F80000E00E941D0100E00E941D0100E00E942F
:100808001D0100E00E941D0100E00E941D0100E0A2
:100818000E941D0100E00E941D010E94140100EDCC
:100828000E941D0107E30E941D0100E00E941D01B6
:1008380000E00E941D010E94140100ED0E941D01AC
:1008480003E60E941D0100E00E941D0100E00E94D5
:100858001D0100E00E941D0100E00E941D0100E052
:100868000E941D0100E00E941D0100E00E941D0180
:1008780000E00E941D0102E00E941D0100E00E94AC
:100888001D010E94140100ED0E941D0104E70E9451
:100898001D0100E00E941D010E941A0101E0009361
:1008A8008000789400C078940000F894009180004B
:0808B8000130C9F77894F7CF75
:00000001FF
