:020000020000FC
:020000006BC2D1
:040018000C949801AB
:040028000C947D01B6
:040034000C940B021B
:100048000C94D401020F131F0895FF27EE27319651
:10005800021B1040E0F73197020F202F8F010895FF
:100068005D9BFECF0CB908955F9BFECF0CB1089540
:10007800102F20E017FF04C001E30E94340003C0E2
:1000880000E30E943400110F2395283099F7089552
:10009800980137FF07C00DE20E943400215030401C
:1000A800209530954427B7E2A0E143952A1B3B0BE6
:1000B800E0F74A952A0F3B1F00E3040F0E94340023
:1000C8004427B3E0A8EE43952A1B3B0BE0F74A957B
:1000D8002A0F3B1F00E3040F0E9434004427B0E0BE
:1000E800A4E643952A1B3B0BE0F74A952A0F3B1FD2
:1000F80000E3040F0E9434004427B0E0AAE04395CF
:100108002A1B3B0BE0F74A952A0F3B1F00E3040F1D
:100118000E9434004427B0E0A1E043952A1B3B0B22
:10012800E0F74A952A0F3B1F00E3040F0E943400B2
:10013800089598014427B7E2A0E143952A1B3B0B99
:10014800E0F74A952A0F3B1F00E3040F0E94340092
:100158004427B3E0A8EE43952A1B3B0BE0F74A95EA
:100168002A0F3B1F00E3040F0E9434004427B0E02D
:10017800A4E643952A1B3B0BE0F74A952A0F3B1F41
:1001880000E3040F0E9434004427B0E0AAE043953E
:100198002A1B3B0BE0F74A952A0F3B1F00E3040F8D
:1001A8000E9434004427B0E0A1E043952A1B3B0B92
:1001B800E0F74A952A0F3B1F00E3040F0E94340022
:1001C8000895902E3090700040906F0050906E000F
:1001D80078946090700070906F0080906E00F89432
:1001E800631874088508691498F37894089503BD12
:1001F8000895053660F41FEF019F002D112D24E6A8
:100208000E942900223308F003950E94FB000895FC
:1002180004EA06BF06B707FFFDCF089504E906BF45
:10022800089503B904E806BF06B707FFFDCF089590
:1002380000FD02C004E801C004EC06BF06B707FFD2
:10024800FDCF03B108950E940C0100ED0E94150135
:100258000BE30E9415010E940C0101ED0E9415019B
:1002680001E00E941C010093600001E00E941C0153
:100278000093610001E00E941C010093620001E00C
:100288000E941C010093630001E00E941C0100937E
:10029800640001E00E941C010093650001E00E94D7
:1002A8001C010093660001E00E941C010093670096
:1002B80001E00E941C010093680001E00E941C01FB
:1002C8000093690001E00E941C0100936A0001E0AC
:1002D8000E941C0100936B0001E00E941C01009326
:1002E8006C0000E00E941C0100936B000E94120148
:1002F80008950F930FB70F9301E000907000000E60
:100308000092700068F400E010906F00101E1092C8
:100318006F0030F420906E00201E20926E0000F4D2
:100328000F910FBF0F9118950F921F922F923F9226
:100338000F930FB70F9300917B0000FD11C006B417
:1003480017B40092770010927800016000937B0048
:100358000F910FBF0F913F902F901F900F901895FE
:10036800009077001090780026B437B42018310830
:100378002092790030927A0000E00DBD0CBD00910A
:100388007B000E7F00937B000091790010917A002A
:100398000F910FBF0F913F902F901F900F901895BE
:1003A8000F921F922F923F924F925F920F930FB727
:1003B8000F930090700010906F0020906E003090A6
:1003C8007300409072005090710000927300109278
:1003D80072002092710003181408250802E0101614
:1003E80060F000927400109275002092760000E48C
:1003F80008B908E508B90E945A020F910FBF0F917A
:100408005F904F903F902F901F900F9018950091FC
:100418007C00013019F0023041F00EC002E0009378
:100428007C000CB100937D00189503E000937C00DC
:100438000CB100937E0018950CB100937F0001E089
:1004480000937C0000917D00053519F00A3AB1F05F
:10045800189500917E00003119F0013149F0189586
:1004680001E00093800000917F000E94FD00189534
:1004780000E00093800000E003BD189518954091B6
:100488008300403021F404E10E94FD00F8CF409140
:100498008300423021F008E20E94FD00F8CFF89472
:1004A800000007E30E94FD007894F9CF4091830093
:1004B800413038F441E04093830006E40E94340060
:1004C800089502E50E94340042E0409383000895B5
:1004D8000FE50DBF08E00EBF07E610E010BD09B933
:1004E80008E90AB906E800BD01E000937C0000278E
:1004F80000937D0000937E0000937F0001B30068A5
:1005080001BB09E605BD00E001B902E100B904E05C
:1005180006BF00000BE003BF00E002BF09EF0CBFFD
:1005280000270093700000936F0000936E0009B7D6
:10053800026009BF00E00FBD02E80EBD002700936E
:1005480077000093780009B7006209BF002700937D
:10055800730000937200009371000093740000937D
:1005680075000093760008B1086408B900B7077FE2
:1005780000BFBB980E940C0100ED0E94150109E123
:100588000E94150107E00E94150100E00E94150174
:1005980008E00E94150108E00E94150100E00E9491
:1005A800150100E00E94150100E00E94150100E01D
:1005B8000E94150100E00E94150100E00E9415014B
:1005C80000E00E94150100E00E94150100E00E9471
:1005D800150100E00E94150100E00E94150100E0ED
:1005E8000E94150100E00E94150100E00E9415011B
:1005F80000E00E94150100E00E94150100E00E9441
:10060800150100E00E94150100E00E94150100E0BC
:100618000E94150100E00E94150100E00E941501EA
:1006280000E00E94150100E00E94150100E00E9410
:1006380015010E940C0100ED0E94150107E30E94BC
:10064800150100E00E94150100E00E9415010E94BA
:100658000C0100ED0E94150103E60E94150100E05F
:100668000E94150100E00E94150100E00E9415019A
:1006780000E00E94150100E00E94150100E00E94C0
:10068800150100E00E94150100E00E94150102E03A
:100698000E94150100E00E9415010E940C0100ED66
:1006A8000E94150104E70E94150100E00E9415014F
:1006B8000E9412010E940C0100ED0E94150109E13F
:1006C8000E94150107E00E94150100E00E94150133
:1006D80008E00E94150108E00E94150100E00E9450
:1006E800150100E00E94150100E00E94150100E0DC
:1006F8000E94150100E00E94150100E00E9415010A
:1007080000E00E94150100E00E94150100E00E942F
:10071800150100E00E94150100E00E94150100E0AB
:100728000E94150100E00E94150100E00E941501D9
:1007380000E00E94150100E00E94150100E00E94FF
:10074800150100E00E94150100E00E94150100E07B
:100758000E94150100E00E94150100E00E941501A9
:1007680000E00E94150100E00E94150100E00E94CF
:1007780015010E940C0100ED0E94150107E30E947B
:10078800150100E00E94150100E00E9415010E9479
:100798000C0100ED0E94150103E60E94150100E01E
:1007A8000E94150100E00E94150100E00E94150159
:1007B80000E00E94150100E00E94150100E00E947F
:1007C800150100E00E94150100E00E94150102E0F9
:1007D8000E94150100E00E9415010E940C0100ED25
:1007E8000E94150104E70E94150100E00E9415010E
:1007F8000E9412010E940C0100ED0E94150109E1FE
:100808000E94150107E00E94150100E00E941501F1
:1008180008E00E94150108E00E94150100E00E940E
:10082800150100E00E94150100E00E94150100E09A
:100838000E94150100E00E94150100E00E941501C8
:1008480000E00E94150100E00E94150100E00E94EE
:10085800150100E00E94150100E00E94150100E06A
:100868000E94150100E00E94150100E00E94150198
:1008780000E00E94150100E00E94150100E00E94BE
:10088800150100E00E94150100E00E94150100E03A
:100898000E94150100E00E94150100E00E94150168
:1008A80000E00E94150100E00E94150100E00E948E
:1008B80015010E940C0100ED0E94150107E30E943A
:1008C800150100E00E94150100E00E9415010E9438
:1008D8000C0100ED0E94150103E60E94150100E0DD
:1008E8000E94150100E00E94150100E00E94150118
:1008F80000E00E94150100E00E94150100E00E943E
:10090800150100E00E94150100E00E94150102E0B7
:100918000E94150100E00E9415010E940C0100EDE3
:100928000E94150104E70E94150100E00E941501CC
:100938000E9412010027009383000093860044E67A
:1009480040938500B0E0A8EC01E000938000789423
:0809580000C00C944302FDCF26
:00000001FF
