:020000020000FC
:02000000C1C37A
:040018000C94E5005F
:040028000C9405022D
:040034000C947102B5
:100048000C942002020F131F0895FF27EE27319604
:10005800021B1040E0F73197020F202F8F010895FF
:100068005D9BFECF0CB908955F9BFECF0CB1089540
:10007800102F20E017FF04C001E30E94340003C0E2
:1000880000E30E943400110F2395283099F7089552
:10009800980137FF07C00DE20E943400215030401C
:1000A800209530954427B7E2A0E143952A1B3B0BE6
:1000B800E0F74A952A0F3B1F00E3040F0E94340023
:1000C8004427B3E0A8EE43952A1B3B0BE0F74A957B
:1000D8002A0F3B1F00E3040F0E9434004427B0E0BE
:1000E800A4E643952A1B3B0BE0F74A952A0F3B1FD2
:1000F80000E3040F0E9434004427B0E0AAE04395CF
:100108002A1B3B0BE0F74A952A0F3B1F00E3040F1D
:100118000E9434004427B0E0A1E043952A1B3B0B22
:10012800E0F74A952A0F3B1F00E3040F0E943400B2
:10013800089598014427B7E2A0E143952A1B3B0B99
:10014800E0F74A952A0F3B1F00E3040F0E94340092
:100158004427B3E0A8EE43952A1B3B0BE0F74A95EA
:100168002A0F3B1F00E3040F0E9434004427B0E02D
:10017800A4E643952A1B3B0BE0F74A952A0F3B1F41
:1001880000E3040F0E9434004427B0E0AAE043953E
:100198002A1B3B0BE0F74A952A0F3B1F00E3040F8D
:1001A8000E9434004427B0E0A1E043952A1B3B0B92
:1001B800E0F74A952A0F3B1F00E3040F0E94340022
:1001C80008950F921F922F923F920F930FB70F939C
:1001D80000907B0010907C0001E0000E00E0101EF3
:1001E80000927B0010927C0000918800013051F051
:1001F8000430B9F00395009388002FC000917F0068
:1002080000FD0FC003950093880006B417B4009250
:1002180077001092780000917F00016000937F00C2
:100228001CC001E0009388000090770010907800CF
:1002380026B437B42018310807E1301670F0209240
:10024800790030927A0000917F000E7F00937F0042
:1002580000E00DBD0CBD0E944E030F910FBF0F9122
:100268003F902F901F900F901895902E309070000F
:1002780040906F0050906E0078946090700070907D
:100288006F0080906E00F8946318740885086914EC
:1002980098F37894089503BD0895053660F41FEF28
:1002A800019F002D112D24E60E942900223308F019
:1002B80003950E944F01089504EA06BF06B707FF99
:1002C800FDCF089504E906BF089503B904E806BF01
:1002D80006B707FFFDCF089500FD02C004E801C07E
:1002E80004EC06BF06B707FFFDCF03B108950E94CF
:1002F800600100ED0E9469010BE30E9469010E9400
:10030800600101ED0E94690101E00E947001009303
:10031800600001E00E9470010093610001E00E940A
:1003280070010093620001E00E9470010093630075
:1003380001E00E9470010093640001E00E947001D6
:100348000093650001E00E9470010093660001E0DF
:100358000E9470010093670001E00E947001009301
:10036800680001E00E9470010093690001E00E94AA
:10037800700100936A0001E00E94700100936B0015
:1003880001E00E94700100936C0000E00E9470017F
:1003980000936B000E94660108950E94600100EDC1
:1003A8000E9469010BE30E9469010E94600101ED4E
:1003B8000E94690101E00E9470010093600000E062
:1003C8000E947001009361000E94660108950E94D6
:1003D800600100ED0E94690107E40E9469010E9422
:1003E800600101ED0E94690101E00E947001009323
:1003F8006C0000E00E94700100936D000E9466018D
:1004080008950F930FB70F9301E000907000000E4E
:100418000092700068F400E010906F00101E1092B7
:100428006F0030F420906E00201E20926E0000F4C1
:100438000F910FBF0F9118950F921F922F923F9215
:100448004F925F920F930FB70F9300907000109028
:100458006F0020906E0030907300409072005090B2
:1004680071000092730010927200209271000318BC
:100478001408250802E0101630F10092740010925A
:1004880075002092760000907B0010907C0000920E
:100498007D0010927E0000E000937B0000937C00BA
:1004A80000E408B900917F00046000937F0008E52C
:1004B80008B90DE60093890000E600938A000E94BF
:1004C80024030E9439030F910FBF0F915F904F9043
:1004D8003F902F901F900F90189500918000013049
:1004E80019F0023069F030C00CB1053519F00A3A3C
:1004F80009F018950093810002E000938000189598
:1005080000918100053531F00A3A79F003E40E9440
:100518003400FCCF0CB1003189F0013179F002319F
:1005280069F0033159F00C949E020CB10B3A31F08A
:100538000C949E0201E000938000189500938200BD
:1005480003E00093800018950CB10093830001E04C
:100558000093800000918100053519F00A3A29F1CD
:10056800189500918200003139F0013151F00231C3
:1005780071F0033189F01895009183000E945101B0
:10058800189503E50E94340000E003BD189500911A
:10059800830000938B00189500918B0000938900CD
:1005A8000091830000938A001895009182000B3A0D
:1005B80009F018950E940F0318950E94D1010BEBC2
:1005C8000E94340001EA0E943400009160000E94F9
:1005D80034000BEB0E94340002EA0E9434000091C0
:1005E80061000E94340008950E94EB010BEB0E9409
:1005F800340003EA0E94340000916C000E94340029
:100608000BEB0E94340004EA0E94340000916D0054
:100618000E94340008950BEB0E94340005EA0E9402
:10062800340000917C000E9434000BEB0E943400DF
:1006380006EA0E94340000917B000E94340008956D
:100648000BEB0E94340007EA0E9434000091750009
:100658000E9434000BEB0E94340008EA0E94340028
:10066800009174000E94340008950BEB0E9434003E
:1006780009EA0E94340000917E000E9434000BEBCE
:100688000E9434000AEA0E94340000917D000E9412
:100698003400089500917F0007FD3CC000918A0056
:1006A800109189002091790030917A00021B130B78
:1006B8000FB702FD4EC00090700010906F002090A0
:1006C8006E0000928700109286002092850040E01C
:1006D80043BD1031B8F1103198F416950795169569
:1006E80007951695079516950795169507950093FE
:1006F8008400C09A00917F00006800937F000895ED
:100708004FEF10938400C09A00917F000068009317
:100718007F000895002703BD0090700010906F00BF
:1007280020906E00309087004090860050908500A1
:1007380003181408250860908400112019F4061481
:1007480008F40895C09800917F000F7700937F0008
:1007580008950150104000951095103260F41695D8
:100768000795169507951695079516950795169565
:10077800079503BD08954FEF43BD08950FE50DBFDD
:1007880008E00EBF07E610E010BD09B908E90AB98C
:1007980006E800BD01E00093800000270093810077
:1007A800009382000093830001B3006801BB09E64F
:1007B80005BD07B3016007BBC09800E001B902E1BD
:1007C80000B904E006BF00000BE003BF00E002BF71
:1007D80009EF0CBF00270093700000936F0000938F
:1007E8006E0009B7026009BF00E00FBD02E00EBD50
:1007F8000027009377000093780000937B00009314
:100808007C0009B7006209BF0027009373000093BA
:1008180072000093710000937400009375000093B8
:10082800760008B1086408B900B7077F00BFBB9815
:100838000E94600100ED0E94690109E10E946901BE
:1008480007E00E94690100E00E94690108E00E9437
:10085800690108E00E94690100E00E94690100E066
:100868000E94690100E00E94690100E00E9469019C
:1008780000E00E94690100E00E94690100E00E9416
:10088800690100E00E94690100E00E94690100E03E
:100898000E94690100E00E94690100E00E9469016C
:1008A80000E00E94690100E00E94690100E00E94E6
:1008B800690100E00E94690100E00E94690100E00E
:1008C8000E94690100E00E94690100E00E9469013C
:1008D80000E00E94690100E00E94690100E00E94B6
:1008E800690100E00E94690100E00E9469010E941C
:1008F800600100ED0E94690107E30E94690100E0C0
:100908000E94690100E00E9469010E94600100EDF7
:100918000E94690103E60E94690100E00E946901E2
:1009280000E00E94690100E00E94690100E00E9465
:10093800690100E00E94690100E00E94690100E08D
:100948000E94690100E00E94690102E00E946901B9
:1009580000E00E9469010E94600100ED0E946901A7
:1009680004E70E94690100E00E9469010E94660193
:100978000E94600100ED0E94690109E10E9469017D
:1009880007E00E94690100E00E94690108E00E94F6
:10099800690108E00E94690100E00E94690100E025
:1009A8000E94690100E00E94690100E00E9469015B
:1009B80000E00E94690100E00E94690100E00E94D5
:1009C800690100E00E94690100E00E94690100E0FD
:1009D8000E94690100E00E94690100E00E9469012B
:1009E80000E00E94690100E00E94690100E00E94A5
:1009F800690100E00E94690100E00E94690100E0CD
:100A08000E94690100E00E94690100E00E946901FA
:100A180000E00E94690100E00E94690100E00E9474
:100A2800690100E00E94690100E00E9469010E94DA
:100A3800600100ED0E94690107E30E94690100E07E
:100A48000E94690100E00E9469010E94600100EDB6
:100A58000E94690103E60E94690100E00E946901A1
:100A680000E00E94690100E00E94690100E00E9424
:100A7800690100E00E94690100E00E94690100E04C
:100A88000E94690100E00E94690102E00E94690178
:100A980000E00E9469010E94600100ED0E94690166
:100AA80004E70E94690100E00E9469010E94660152
:100AB8000E94600100ED0E94690109E10E9469013C
:100AC80007E00E94690100E00E94690108E00E94B5
:100AD800690108E00E94690100E00E94690100E0E4
:100AE8000E94690100E00E94690100E00E9469011A
:100AF80000E00E94690100E00E94690100E00E9494
:100B0800690100E00E94690100E00E94690100E0BB
:100B18000E94690100E00E94690100E00E946901E9
:100B280000E00E94690100E00E94690100E00E9463
:100B3800690100E00E94690100E00E94690100E08B
:100B48000E94690100E00E94690100E00E946901B9
:100B580000E00E94690100E00E94690100E00E9433
:100B6800690100E00E94690100E00E9469010E9499
:100B7800600100ED0E94690107E30E94690100E03D
:100B88000E94690100E00E9469010E94600100ED75
:100B98000E94690103E60E94690100E00E94690160
:100BA80000E00E94690100E00E94690100E00E94E3
:100BB800690100E00E94690100E00E94690100E00B
:100BC8000E94690100E00E94690102E00E94690137
:100BD80000E00E9469010E94600100ED0E94690125
:100BE80004E70E94690100E00E9469010E94660111
:100BF8000AEF0E9439010AEF0E9439010AEF0E94A8
:100C080039010AEF0E9439010AEF0E9439010AEFFF
:100C18000E9439010AEF0E9439010AEF0E94390146
:100C280001E000938A0000E0009389000027009308
:0C0C38007F0004E603BD789400C0FFCFED
:00000001FF
