:020000020000FC
:1000000033C05D9BFECF0CB908955F9BFECF0CB152
:100010000895102F20E017FF04C001E30E940100A3
:1000200003C000E30E940100110F2395283099F7C7
:10003000089504EA06BF06B707FFFDCF089504E957
:1000400006BF089503B904E806BF06B707FFFDCF52
:10005000089500FD02C004E801C004EC06BF06B725
:1000600007FFFDCF03B108950FE50DBF08E00EBFF8
:1000700007E610E010BD09B908E10AB906E800BDBD
:1000800000E801BB09E605BD00E001B902E100B9E5
:1000900004E006BF00000E94190000ED0E9422004B
:1000A00009E10E94220007E00E94220000E00E9475
:1000B000220008E00E94220000E00E94220000E0EE
:1000C0000E94220000E00E94220000E00E94220024
:1000D00000E00E94220000E00E94220000E00E9456
:1000E000220000E00E94220000E00E94220000E0C6
:1000F0000E94220000E00E94220000E00E942200F4
:1001000000E00E94220000E00E94220000E00E9425
:10011000220000E00E94220000E00E94220000E095
:100120000E94220000E00E94220000E00E942200C3
:1001300000E00E94220000E00E94220000E00E94F5
:10014000220000E00E94220000E00E94220000E065
:100150000E9422000E94190000ED0E94220007E385
:100160000E94220000E00E94220000E00E94220083
:100170000E94190000ED0E94220003E60E94220066
:1001800000E00E94220000E00E94220000E00E94A5
:10019000220000E00E94220000E00E94220000E015
:1001A0000E94220000E00E94220000E00E94220043
:1001B00002E00E94220000E00E9422000E9419003A
:1001C00000ED0E94220004E70E94220000E00E944D
:1001D00022000E941F0004E40E9401000DE00E9422
:1001E00001000AE00E9401000CE303BD00C00E9470
:1001F000190000ED0E9422000FE30E9422000E94DD
:10020000190001ED0E94220001E00E942900302F18
:1002100000E00E942900402F0E941F000DE00E9474
:1002200001000AE00E940100032F0E940900042F30
:100230000E9409000AEF1FE021EB0000000000000F
:100240002A95D9F71A950000B9F70A950000000021
:10025000000000000000000071F70AEF1FE021EB32
:100260000000000000002A95D9F71A950000B9F7A0
:100270000A9500000000000000000000000071F777
:100280000AEF1FE021EB0000000000002A95D9F7DB
:100290001A950000B9F70A95000000000000000060
:1002A0000000000071F70AEF1FE021EB00000000E2
:1002B00000002A95D9F71A950000B9F70A950000B1
:0E02C0000000000000000000000071F790CF69
:00000001FF
