:020000020000FC
:10000000F0C0902E3090700040906F0050906E00C5
:1000100078946090700070906F0080906E00F894FB
:10002000631874088508691498F3789408955D9BA3
:10003000FECF0CB908955F9BFECF0CB10895102F31
:1000400020E017FF04C001E30E94170003C000E393
:100050000E941700110F2395283099F708959801F1
:1000600037FF07C00DE20E94170021503040209555
:1000700030954427B7E2A0E143952A1B3B0BE0F7FC
:100080004A952A0F3B1F00E3040F0E9417004427E4
:10009000B3E0A8EE43952A1B3B0BE0F74A952A0FE5
:1000A0003B1F00E3040F0E9417004427B0E0A4E6C2
:1000B00043952A1B3B0BE0F74A952A0F3B1F00E3B1
:1000C000040F0E9417004427B0E0AAE043952A1BC2
:1000D0003B0BE0F74A952A0F3B1F00E3040F0E94F9
:1000E00017004427B0E0A1E043952A1B3B0BE0F743
:1000F0004A952A0F3B1F00E3040F0E941700089542
:1001000004EA06BF06B707FFFDCF089504E906BF5E
:10011000089503B904E806BF06B707FFFDCF0895A9
:1001200000FD02C004E801C004EC06BF06B707FFEB
:10013000FDCF03B108950E94800000ED0E94890068
:100140000BE30E9489000E94800001ED0E9489005B
:1001500001E00E9490000093600001E00E94900086
:100160000093610001E00E9490000093620001E0B2
:100170000E9490000093630001E00E9490000093B1
:10018000640001E00E9490000093650001E00E947D
:1001900090000093660001E00E94900000936700C9
:1001A00001E00E9490000093680001E00E9490002E
:1001B0000093690001E00E94900000936A0001E052
:1001C0000E94900000936B0001E00E949000009359
:1001D0006C0000E00E94900000936B000E9486007B
:1001E00008950FE50DBF08E00EBF08E010E010BD58
:1001F00009B908E10AB906E800BD8F9A09E605BD0C
:1002000000E001B902E100B904E006BF00000E946D
:10021000800000ED0E94890009E10E94890007E04A
:100220000E94890000E00E94890008E00E94890085
:1002300008E00E94890000E00E94890000E00E941E
:10024000890000E00E94890000E00E94890000E02F
:100250000E94890000E00E94890000E00E9489005D
:1002600000E00E94890000E00E94890000E00E94F6
:10027000890000E00E94890000E00E94890000E0FF
:100280000E94890000E00E94890000E00E9489002D
:1002900000E00E94890000E00E94890000E00E94C6
:1002A000890000E00E94890000E00E94890000E0CF
:1002B0000E94890000E00E94890000E00E948900FD
:1002C00000E00E94890000E00E9489000E948000F6
:1002D00000ED0E94890007E30E94890000E00E946F
:1002E000890000E00E9489000E94800000ED0E94C9
:1002F000890003E60E94890000E00E94890000E076
:100300000E94890000E00E94890000E00E948900AC
:1003100000E00E94890000E00E94890000E00E9445
:10032000890000E00E94890002E00E94890000E04C
:100330000E9489000E94800000ED0E94890004E76D
:100340000E94890000E00E9489000E9486000E94AD
:10035000800000ED0E94890009E10E94890007E009
:100360000E94890000E00E94890008E00E94890044
:1003700008E00E94890000E00E94890000E00E94DD
:10038000890000E00E94890000E00E94890000E0EE
:100390000E94890000E00E94890000E00E9489001C
:1003A00000E00E94890000E00E94890000E00E94B5
:1003B000890000E00E94890000E00E94890000E0BE
:1003C0000E94890000E00E94890000E00E948900EC
:1003D00000E00E94890000E00E94890000E00E9485
:1003E000890000E00E94890000E00E94890000E08E
:1003F0000E94890000E00E94890000E00E948900BC
:1004000000E00E94890000E00E9489000E948000B4
:1004100000ED0E94890007E30E94890000E00E942D
:10042000890000E00E9489000E94800000ED0E9487
:10043000890003E60E94890000E00E94890000E034
:100440000E94890000E00E94890000E00E9489006B
:1004500000E00E94890000E00E94890000E00E9404
:10046000890000E00E94890002E00E94890000E00B
:100470000E9489000E94800000ED0E94890004E72C
:100480000E94890000E00E9489000E9486000E946C
:10049000800000ED0E94890009E10E94890007E0C8
:1004A0000E94890000E00E94890008E00E94890003
:1004B00008E00E94890000E00E94890000E00E949C
:1004C000890000E00E94890000E00E94890000E0AD
:1004D0000E94890000E00E94890000E00E948900DB
:1004E00000E00E94890000E00E94890000E00E9474
:1004F000890000E00E94890000E00E94890000E07D
:100500000E94890000E00E94890000E00E948900AA
:1005100000E00E94890000E00E94890000E00E9443
:10052000890000E00E94890000E00E94890000E04C
:100530000E94890000E00E94890000E00E9489007A
:1005400000E00E94890000E00E9489000E94800073
:1005500000ED0E94890007E30E94890000E00E94EC
:10056000890000E00E9489000E94800000ED0E9446
:10057000890003E60E94890000E00E94890000E0F3
:100580000E94890000E00E94890000E00E9489002A
:1005900000E00E94890000E00E94890000E00E94C3
:1005A000890000E00E94890002E00E94890000E0CA
:1005B0000E9489000E94800000ED0E94890004E7EB
:1005C0000E94890000E00E9489000E94860004E4E5
:1005D0000E9417000DE00E9417000AE00E94170019
:1005E00008E703BD00C00E949B0010916C000091C1
:1005F0006D000E942F000DE00E9417000AE00E948B
:10060000170010916C0000916D0017FF04C001509D
:1006100010400095109513308CF0133061F004E613
:1006200003BD08E40E9417000DE00E9417000AE0D5
:100630000E9417000FC0083E08F0F1CF04EB03BD85
:100640000CE40E9417000DE00E9417000AE00E94CF
:06065000170000C0C8CF36
:00000001FF
