:020000020000FC
:02000000B0C18D
:040018000C945701EC
:040028000C9417011C
:040034000C947A01AD
:100048000C942C01902E3090700040906F005090CE
:100058006E0078946090700070906F0080906E00D1
:10006800F894631874088508691498F378940895C7
:1000780008955D9BFECF0CB908955F9BFECF0CB130
:100088000895102F20E017FF04C001E30E943D00EF
:1000980003C000E30E943D00110F2395283099F713
:1000A8000895980137FF07C00DE20E943D002150D6
:1000B8003040209530954427B7E2A0E143952A1BAC
:1000C8003B0BE0F74A952A0F3B1F00E3040F0E9401
:1000D8003D004427B3E0A8EE43952A1B3B0BE0F70D
:1000E8004A952A0F3B1F00E3040F0E943D00442756
:1000F800B0E0A4E643952A1B3B0BE0F74A952A0F8C
:100108003B1F00E3040F0E943D004427B0E0AAE033
:1001180043952A1B3B0BE0F74A952A0F3B1F00E348
:10012800040F0E943D004427B0E0A1E043952A1B3C
:100138003B0BE0F74A952A0F3B1F00E3040F0E9490
:100148003D00089504EA06BF06B707FFFDCF0895EE
:1001580004E906BF089503B904E806BF06B707FF18
:10016800FDCF089500FD02C004E801C004EC06BFFD
:1001780006B707FFFDCF03B108950E94A60000ED62
:100188000E94AF000BE30E94AF000E94A60001EDA1
:100198000E94AF0001E00E94B6000093600001E0F9
:1001A8000E94B6000093610001E00E94B60000932F
:1001B800620001E00E94B6000093630001E00E9423
:1001C800B6000093640001E00E94B6000093650049
:1001D80001E00E94B6000093660001E00E94B600AC
:1001E8000093670001E00E94B6000093680001E0F8
:1001F8000E94B6000093690001E00E94B6000093D7
:100208006A0001E00E94B60000936B0001E00E94C2
:10021800B60000936C0000E00E94B60000936B00EB
:100228000E94AC00089541E000907000040E009216
:10023800700068F440E010906F00141E10926F0078
:1002480030F420906E00241E20926E0000F4189561
:100258000090700010906F0020906E003090730036
:1002680040907200509071000092730010927200DA
:1002780020927100031814082508112099F00092A3
:100288007400109275002092760000E408B908E521
:1002980008B907E40E943D000DE00E943D000AE015
:1002A8000E943D00189500917B0000FD0AC006B42D
:1002B80017B40092770010927800016000937B00D9
:1002C8001895009077001090780026B437B420185D
:1002D80031082092790030927A0000E00DBD0CBD03
:1002E80000917B000E7F00937B00189500917C00A5
:1002F800013019F0023041F00EC002E000937C009A
:100308000CB100937D00189503E000937C000CB1BC
:1003180000937E0018950CB100937F0001E00093D4
:100328007C0000917D00053519F00A3AA9F018956E
:1003380000917E00003119F0013141F0189501E07B
:100348000093800000917F0003BD189500E00093A2
:10035800800000E003BD189518950FE50DBF08E073
:100368000EBF07E610E010BD09B908E90AB906E8AA
:1003780000BD01E000937C00002700937D000093FE
:100388007E0000937F0001B3006809E605BD00E028
:1003980001B902E100B904E006BF00000BE003BFA9
:1003A80000E002BF09EF0CBF00E00FBD02E80EBD80
:1003B80000270093700000936F0000936E00009375
:1003C800730000937200009371000093740000930F
:1003D80075000093760000937700009378000E94E0
:1003E800A60000ED0E94AF0009E10E94AF0007E0FF
:1003F8000E94AF0000E00E94AF0008E00E94AF003A
:1004080008E00E94AF0000E00E94AF0000E00E94F8
:10041800AF0000E00E94AF0000E00E94AF0000E0E3
:100428000E94AF0000E00E94AF0000E00E94AF0011
:1004380000E00E94AF0000E00E94AF0000E00E94D0
:10044800AF0000E00E94AF0000E00E94AF0000E0B3
:100458000E94AF0000E00E94AF0000E00E94AF00E1
:1004680000E00E94AF0000E00E94AF0000E00E94A0
:10047800AF0000E00E94AF0000E00E94AF0000E083
:100488000E94AF0000E00E94AF0000E00E94AF00B1
:1004980000E00E94AF0000E00E94AF000E94A600AA
:1004A80000ED0E94AF0007E30E94AF0000E00E9449
:1004B800AF0000E00E94AF000E94A60000ED0E947D
:1004C800AF0003E60E94AF0000E00E94AF0000E02A
:1004D8000E94AF0000E00E94AF0000E00E94AF0061
:1004E80000E00E94AF0000E00E94AF0000E00E9420
:1004F800AF0000E00E94AF0002E00E94AF0000E001
:100508000E94AF000E94A60000ED0E94AF0004E721
:100518000E94AF0000E00E94AF000E94AC000E9461
:10052800A60000ED0E94AF0009E10E94AF0007E0BD
:100538000E94AF0000E00E94AF0008E00E94AF00F8
:1005480008E00E94AF0000E00E94AF0000E00E94B7
:10055800AF0000E00E94AF0000E00E94AF0000E0A2
:100568000E94AF0000E00E94AF0000E00E94AF00D0
:1005780000E00E94AF0000E00E94AF0000E00E948F
:10058800AF0000E00E94AF0000E00E94AF0000E072
:100598000E94AF0000E00E94AF0000E00E94AF00A0
:1005A80000E00E94AF0000E00E94AF0000E00E945F
:1005B800AF0000E00E94AF0000E00E94AF0000E042
:1005C8000E94AF0000E00E94AF0000E00E94AF0070
:1005D80000E00E94AF0000E00E94AF000E94A60069
:1005E80000ED0E94AF0007E30E94AF0000E00E9408
:1005F800AF0000E00E94AF000E94A60000ED0E943C
:10060800AF0003E60E94AF0000E00E94AF0000E0E8
:100618000E94AF0000E00E94AF0000E00E94AF001F
:1006280000E00E94AF0000E00E94AF0000E00E94DE
:10063800AF0000E00E94AF0002E00E94AF0000E0BF
:100648000E94AF000E94A60000ED0E94AF0004E7E0
:100658000E94AF0000E00E94AF000E94AC000E9420
:10066800A60000ED0E94AF0009E10E94AF0007E07C
:100678000E94AF0000E00E94AF0008E00E94AF00B7
:1006880008E00E94AF0000E00E94AF0000E00E9476
:10069800AF0000E00E94AF0000E00E94AF0000E061
:1006A8000E94AF0000E00E94AF0000E00E94AF008F
:1006B80000E00E94AF0000E00E94AF0000E00E944E
:1006C800AF0000E00E94AF0000E00E94AF0000E031
:1006D8000E94AF0000E00E94AF0000E00E94AF005F
:1006E80000E00E94AF0000E00E94AF0000E00E941E
:1006F800AF0000E00E94AF0000E00E94AF0000E001
:100708000E94AF0000E00E94AF0000E00E94AF002E
:1007180000E00E94AF0000E00E94AF000E94A60027
:1007280000ED0E94AF0007E30E94AF0000E00E94C6
:10073800AF0000E00E94AF000E94A60000ED0E94FA
:10074800AF0003E60E94AF0000E00E94AF0000E0A7
:100758000E94AF0000E00E94AF0000E00E94AF00DE
:1007680000E00E94AF0000E00E94AF0000E00E949D
:10077800AF0000E00E94AF0002E00E94AF0000E07E
:100788000E94AF000E94A60000ED0E94AF0004E79F
:100798000E94AF0000E00E94AF000E94AC0000E0A1
:1007A80007BB01E00093800002E209BF08E408B932
:1007B80000B7077F00BF789400C07894F894009140
:0A07C80080000130D1F77894F8CFDB
:00000001FF
