:020000020000FC
:020000001AC123
:100028000C940601902E3090700040906F00509014
:100038006E0078946090700070906F0080906E00F1
:10004800F894631874088508691498F378940895E7
:100058005D9BFECF0CB908955F9BFECF0CB1089550
:10006800102F20E017FF04C001E30E942C0003C0FA
:1000780000E30E942C00110F2395283099F708956A
:10008800980137FF07C00DE20E942C002150304034
:10009800209530954427B7E2A0E143952A1B3B0BF6
:1000A800E0F74A952A0F3B1F00E3040F0E942C003B
:1000B8004427B3E0A8EE43952A1B3B0BE0F74A958B
:1000C8002A0F3B1F00E3040F0E942C004427B0E0D6
:1000D800A4E643952A1B3B0BE0F74A952A0F3B1FE2
:1000E80000E3040F0E942C004427B0E0AAE04395E7
:1000F8002A1B3B0BE0F74A952A0F3B1F00E3040F2E
:100108000E942C004427B0E0A1E043952A1B3B0B3A
:10011800E0F74A952A0F3B1F00E3040F0E942C00CA
:10012800089504EA06BF06B707FFFDCF089504E95E
:1001380006BF089503B904E806BF06B707FFFDCF59
:10014800089500FD02C004E801C004EC06BF06B72C
:1001580007FFFDCF03B108950E94950000ED0E94AE
:100168009E000BE30E949E000E94950001ED0E94F4
:100178009E0001E00E94A5000093600001E00E943B
:10018800A5000093610001E00E94A50000936200B1
:1001980001E00E94A5000093630001E00E94A50011
:1001A8000093640001E00E94A5000093650001E04F
:1001B8000E94A5000093660001E00E94A50000933C
:1001C800670001E00E94A5000093680001E00E941A
:1001D800A5000093690001E00E94A50000936A0051
:1001E80001E00E94A50000936B0001E00E94A500B9
:1001F80000936C0000E00E94A50000936B000E9431
:100208009B00089541E000907000040E0092700079
:1002180068F440E010906F00141E10926F0030F4E4
:1002280020906E00241E20926E0000F418950FE5B1
:100238000DBF08E00EBF08E010E010BD09B908E1E5
:100248000AB906E800BD8F9A09E605BD00E001B9C4
:1002580002E100B904E006BF00000BE003BF00E0C4
:1002680002BF09EF0CBF00270093700000936F00D6
:1002780000936E000E94950000ED0E949E0009E127
:100288000E949E0007E00E949E0000E00E949E00DF
:1002980008E00E949E0008E00E949E0000E00E9484
:1002A8009E0000E00E949E0000E00E949E0000E088
:1002B8000E949E0000E00E949E0000E00E949E00B6
:1002C80000E00E949E0000E00E949E0000E00E9464
:1002D8009E0000E00E949E0000E00E949E0000E058
:1002E8000E949E0000E00E949E0000E00E949E0086
:1002F80000E00E949E0000E00E949E0000E00E9434
:100308009E0000E00E949E0000E00E949E0000E027
:100318000E949E0000E00E949E0000E00E949E0055
:1003280000E00E949E0000E00E949E0000E00E9403
:100338009E000E94950000ED0E949E0007E30E9427
:100348009E0000E00E949E0000E00E949E000E9425
:10035800950000ED0E949E0003E60E949E0000E0CA
:100368000E949E0000E00E949E0000E00E949E0005
:1003780000E00E949E0000E00E949E0000E00E94B3
:100388009E0000E00E949E0000E00E949E0002E0A5
:100398000E949E0000E00E949E000E94950000EDD1
:1003A8000E949E0004E70E949E0000E00E949E00BA
:1003B8000E949B000E94950000ED0E949E0009E1AA
:1003C8000E949E0007E00E949E0000E00E949E009E
:1003D80008E00E949E0008E00E949E0000E00E9443
:1003E8009E0000E00E949E0000E00E949E0000E047
:1003F8000E949E0000E00E949E0000E00E949E0075
:1004080000E00E949E0000E00E949E0000E00E9422
:100418009E0000E00E949E0000E00E949E0000E016
:100428000E949E0000E00E949E0000E00E949E0044
:1004380000E00E949E0000E00E949E0000E00E94F2
:100448009E0000E00E949E0000E00E949E0000E0E6
:100458000E949E0000E00E949E0000E00E949E0014
:1004680000E00E949E0000E00E949E0000E00E94C2
:100478009E000E94950000ED0E949E0007E30E94E6
:100488009E0000E00E949E0000E00E949E000E94E4
:10049800950000ED0E949E0003E60E949E0000E089
:1004A8000E949E0000E00E949E0000E00E949E00C4
:1004B80000E00E949E0000E00E949E0000E00E9472
:1004C8009E0000E00E949E0000E00E949E0002E064
:1004D8000E949E0000E00E949E000E94950000ED90
:1004E8000E949E0004E70E949E0000E00E949E0079
:1004F8000E949B000E94950000ED0E949E0009E169
:100508000E949E0007E00E949E0000E00E949E005C
:1005180008E00E949E0008E00E949E0000E00E9401
:100528009E0000E00E949E0000E00E949E0000E005
:100538000E949E0000E00E949E0000E00E949E0033
:1005480000E00E949E0000E00E949E0000E00E94E1
:100558009E0000E00E949E0000E00E949E0000E0D5
:100568000E949E0000E00E949E0000E00E949E0003
:1005780000E00E949E0000E00E949E0000E00E94B1
:100588009E0000E00E949E0000E00E949E0000E0A5
:100598000E949E0000E00E949E0000E00E949E00D3
:1005A80000E00E949E0000E00E949E0000E00E9481
:1005B8009E000E94950000ED0E949E0007E30E94A5
:1005C8009E0000E00E949E0000E00E949E000E94A3
:1005D800950000ED0E949E0003E60E949E0000E048
:1005E8000E949E0000E00E949E0000E00E949E0083
:1005F80000E00E949E0000E00E949E0000E00E9431
:100608009E0000E00E949E0000E00E949E0002E022
:100618000E949E0000E00E949E000E94950000ED4E
:100628000E949E0004E70E949E0000E00E949E0037
:100638000E949B0004E40E942C000DE00E942C0004
:100648000AE00E942C0002E009BF789400C0F894E8
:100658000AE00E941600F89400E003BD78940AEFBF
:100668000E941600F8940FEF03BD78940091700073
:1006780010916F000E9444000DE00E942C000AE0D7
:060688000E942C00E4CFEB
:00000001FF
