:020000020000FC
:020000009CC2A0
:040018000C949801AB
:040028000C947D01B6
:040034000C945F02C7
:100048000C941302020F131F0895FF27EE27319611
:10005800021B1040E0F73197020F202F8F010895FF
:100068005D9BFECF0CB908955F9BFECF0CB1089540
:10007800102F20E017FF04C001E30E94340003C0E2
:1000880000E30E943400110F2395283099F7089552
:10009800980137FF07C00DE20E943400215030401C
:1000A800209530954427B7E2A0E143952A1B3B0BE6
:1000B800E0F74A952A0F3B1F00E3040F0E94340023
:1000C8004427B3E0A8EE43952A1B3B0BE0F74A957B
:1000D8002A0F3B1F00E3040F0E9434004427B0E0BE
:1000E800A4E643952A1B3B0BE0F74A952A0F3B1FD2
:1000F80000E3040F0E9434004427B0E0AAE04395CF
:100108002A1B3B0BE0F74A952A0F3B1F00E3040F1D
:100118000E9434004427B0E0A1E043952A1B3B0B22
:10012800E0F74A952A0F3B1F00E3040F0E943400B2
:10013800089598014427B7E2A0E143952A1B3B0B99
:10014800E0F74A952A0F3B1F00E3040F0E94340092
:100158004427B3E0A8EE43952A1B3B0BE0F74A95EA
:100168002A0F3B1F00E3040F0E9434004427B0E02D
:10017800A4E643952A1B3B0BE0F74A952A0F3B1F41
:1001880000E3040F0E9434004427B0E0AAE043953E
:100198002A1B3B0BE0F74A952A0F3B1F00E3040F8D
:1001A8000E9434004427B0E0A1E043952A1B3B0B92
:1001B800E0F74A952A0F3B1F00E3040F0E94340022
:1001C8000895902E3090700040906F0050906E000F
:1001D80078946090700070906F0080906E00F89432
:1001E800631874088508691498F37894089503BD12
:1001F8000895053660F41FEF019F002D112D24E6A8
:100208000E942900223308F003950E94FB000895FC
:1002180004EA06BF06B707FFFDCF089504E906BF45
:10022800089503B904E806BF06B707FFFDCF089590
:1002380000FD02C004E801C004EC06BF06B707FFD2
:10024800FDCF03B108950E940C0100ED0E94150135
:100258000BE30E9415010E940C0101ED0E9415019B
:1002680001E00E941C010093600001E00E941C0153
:100278000093610001E00E941C010093620001E00C
:100288000E941C010093630001E00E941C0100937E
:10029800640001E00E941C010093650001E00E94D7
:1002A8001C010093660001E00E941C010093670096
:1002B80001E00E941C010093680001E00E941C01FB
:1002C8000093690001E00E941C0100936A0001E0AC
:1002D8000E941C0100936B0001E00E941C01009326
:1002E8006C0000E00E941C0100936B000E94120148
:1002F80008950F930FB70F9301E000907000000E60
:100308000092700068F400E010906F00101E1092C8
:100318006F0030F420906E00201E20926E0000F4D2
:100328000F910FBF0F9118950F921F922F923F9226
:100338000F930FB70F9300908B0010908C0001E083
:10034800000E00E0101E00928B0010928C000091AD
:100358007B0000FD11C006B417B400928300109210
:100368008400016000937B000F910FBF0F913F90B5
:100378002F901F900F901895009083001090840084
:1003880026B437B4201831080BE0301660F000911D
:100398007B000E7F00937B0000E00DBD0CBD20921A
:1003A8008500309286000F910FBF0F913F902F90DC
:1003B8001F900F9018950BE8C01749F5009087001B
:1003C800109088002090890030908A002018310809
:1003D80032F401E0201A00E0300A2094309403E15E
:1003E800301658F42090890030908A0020928500B9
:1003F80030928600C7E8D0E002C0C7E8D0E001E04C
:10040800000E00E0101E00928B0010928C000F91DD
:100418000FBF0F913F902F901F900F9018950F923C
:100428001F922F923F924F925F920F930FB70F93A5
:100438000090700010906F0020906E003090730054
:1004480040907200509071000092730010927200F8
:100458002092710003181408250802E0101608F10C
:1004680000927400109275002092760000908B0024
:1004780010908C0000928D0010928E00002D112D8E
:100488000E944C000DE00E9434000AE00E943400F3
:1004980000E000938B0000938C0000E408B908E5A5
:1004A80008B90F910FBF0F915F904F903F902F9019
:1004B8001F900F90189500917C00013019F00230C0
:1004C80041F00EC002E000937C000CB100937D0067
:1004D800189503E000937C000CB100937E001895FA
:1004E8000CB100937F0001E000937C0000917D0037
:1004F800053519F00A3AE1F0189500917E000031AF
:1005080019F0013161F0189501E000938000009125
:100518007F000E94FD0003E50E943400189500E06A
:100528000093800000E003BD04E50E9434001895A4
:1005380018950FE50DBF08E00EBF07E610E010BDE7
:1005480009B908E90AB906E800BD01E000937C0092
:10055800002700937D0000937E0000937F0001B385
:10056800006801BB09E605BD00E001B902E100B978
:1005780004E006BF00000BE003BF00E002BF09EF84
:100588000CBF00270093700000936F0000936E006B
:1005980009B7026009BF00E00FBD02E00EBD0027E9
:1005A800009383000093840009B7006209BF00E547
:1005B8000E9434000DE00E9434000AE00E943400DA
:1005C800C7E8D0E0002700937300009372000093FF
:1005D800710000937400009375000093760008B1D1
:1005E800086408B900B7077F00BFBB980E940C01D8
:1005F80000ED0E94150109E10E94150107E00E9423
:10060800150100E00E94150108E00E94150108E0AC
:100618000E94150100E00E94150100E00E941501EA
:1006280000E00E94150100E00E94150100E00E9410
:10063800150100E00E94150100E00E94150100E08C
:100648000E94150100E00E94150100E00E941501BA
:1006580000E00E94150100E00E94150100E00E94E0
:10066800150100E00E94150100E00E94150100E05C
:100678000E94150100E00E94150100E00E9415018A
:1006880000E00E94150100E00E94150100E00E94B0
:10069800150100E00E94150100E00E94150100E02C
:1006A8000E94150100E00E9415010E940C0100ED56
:1006B8000E94150107E30E94150100E00E94150140
:1006C80000E00E9415010E940C0100ED0E94150136
:1006D80003E60E94150100E00E94150100E00E9457
:1006E800150100E00E94150100E00E94150100E0DC
:1006F8000E94150100E00E94150100E00E9415010A
:1007080000E00E94150102E00E94150100E00E942D
:1007180015010E940C0100ED0E94150104E70E94DA
:10072800150100E00E9415010E9412010E940C01AF
:1007380000ED0E94150109E10E94150107E00E94E1
:10074800150100E00E94150108E00E94150108E06B
:100758000E94150100E00E94150100E00E941501A9
:1007680000E00E94150100E00E94150100E00E94CF
:10077800150100E00E94150100E00E94150100E04B
:100788000E94150100E00E94150100E00E94150179
:1007980000E00E94150100E00E94150100E00E949F
:1007A800150100E00E94150100E00E94150100E01B
:1007B8000E94150100E00E94150100E00E94150149
:1007C80000E00E94150100E00E94150100E00E946F
:1007D800150100E00E94150100E00E94150100E0EB
:1007E8000E94150100E00E9415010E940C0100ED15
:1007F8000E94150107E30E94150100E00E941501FF
:1008080000E00E9415010E940C0100ED0E941501F4
:1008180003E60E94150100E00E94150100E00E9415
:10082800150100E00E94150100E00E94150100E09A
:100838000E94150100E00E94150100E00E941501C8
:1008480000E00E94150102E00E94150100E00E94EC
:1008580015010E940C0100ED0E94150104E70E9499
:10086800150100E00E9415010E9412010E940C016E
:1008780000ED0E94150109E10E94150107E00E94A0
:10088800150100E00E94150108E00E94150108E02A
:100898000E94150100E00E94150100E00E94150168
:1008A80000E00E94150100E00E94150100E00E948E
:1008B800150100E00E94150100E00E94150100E00A
:1008C8000E94150100E00E94150100E00E94150138
:1008D80000E00E94150100E00E94150100E00E945E
:1008E800150100E00E94150100E00E94150100E0DA
:1008F8000E94150100E00E94150100E00E94150108
:1009080000E00E94150100E00E94150100E00E942D
:10091800150100E00E94150100E00E94150100E0A9
:100928000E94150100E00E9415010E940C0100EDD3
:100938000E94150107E30E94150100E00E941501BD
:1009480000E00E9415010E940C0100ED0E941501B3
:1009580003E60E94150100E00E94150100E00E94D4
:10096800150100E00E94150100E00E94150100E059
:100978000E94150100E00E94150100E00E94150187
:1009880000E00E94150102E00E94150100E00E94AB
:1009980015010E940C0100ED0E94150104E70E9458
:1009A800150100E00E9415010E94120101E0009368
:1009B80080000AE50027A02EB02E04E40E9434002F
:1009C800789400C00CE30E94E50000918D0010911E
:1009D8008E000E944C000DE00E9434000AE00E9444
:0409E8003400F0CF18
:00000001FF
