:020000020000FC
:10000000DAC05D9BFECF0CB908955F9BFECF0CB1AB
:100010000895102F20E017FF04C001E30E940100A3
:1000200003C000E30E940100110F2395283099F7C7
:100030000895980137FF07C00DE20E94010021508A
:100040003040209530954427B7E2A0E143952A1B24
:100050003B0BE0F74A952A0F3B1F00E3040F0E9479
:1000600001004427B3E0A8EE43952A1B3B0BE0F7C1
:100070004A952A0F3B1F00E3040F0E94010044270A
:10008000B0E0A4E643952A1B3B0BE0F74A952A0F04
:100090003B1F00E3040F0E9401004427B0E0AAE0E8
:1000A00043952A1B3B0BE0F74A952A0F3B1F00E3C1
:1000B000040F0E9401004427B0E0A1E043952A1BF1
:1000C0003B0BE0F74A952A0F3B1F00E3040F0E9409
:1000D0000100089504EA06BF06B707FFFDCF0895A3
:1000E00004E906BF089503B904E806BF06B707FF91
:1000F000FDCF089500FD02C004E801C004EC06BF76
:1001000006B707FFFDCF03B108950E946A0000ED16
:100110000E9473000BE30E9473000E946A0001EDCD
:100120000E94730001E00E947A000093600001E0E9
:100130000E947A000093610001E00E947A0000931F
:10014000620001E00E947A000093630001E00E94D7
:100150007A000093640001E00E947A000093650039
:1001600001E00E947A000093660001E00E947A009C
:100170000093670001E00E947A000093680001E0AC
:100180000E947A000093690001E00E947A000093C7
:100190006A0001E00E947A0000936B0001E00E9477
:1001A0007A0000936C0000E00E947A0000936B00DC
:1001B0000E94700008950FE50DBF08E00EBF08E033
:1001C00010E010BD09B908E10AB906E800BD8F9A30
:1001D00009E605BD00E001B902E100B904E006BF8F
:1001E00000000E946A0000ED0E94730009E10E9475
:1001F000730007E00E94730000E00E94730008E0B3
:100200000E94730008E00E94730000E00E947300E7
:1002100000E00E94730000E00E94730000E00E9472
:10022000730000E00E94730000E00E94730000E091
:100230000E94730000E00E94730000E00E947300BF
:1002400000E00E94730000E00E94730000E00E9442
:10025000730000E00E94730000E00E94730000E061
:100260000E94730000E00E94730000E00E9473008F
:1002700000E00E94730000E00E94730000E00E9412
:10028000730000E00E94730000E00E94730000E031
:100290000E94730000E00E94730000E00E9473005F
:1002A0000E946A0000ED0E94730007E30E94730041
:1002B00000E00E94730000E00E9473000E946A0048
:1002C00000ED0E94730003E60E94730000E00E94AC
:1002D000730000E00E94730000E00E94730000E0E1
:1002E0000E94730000E00E94730000E00E9473000F
:1002F00000E00E94730000E00E94730002E00E9490
:10030000730000E00E9473000E946A0000ED0E94EA
:10031000730004E70E94730000E00E9473000E94D3
:10032000700004E40E9401000DE00E9401000AE058
:100330000E9401000AEA03BD00C00E9485001091DE
:100340006200009163000E9419000DE00E9401000C
:100350000AE00E94010010916200009163001F31C9
:100360002CF41F3F1CF40AEA03BD2AC000E003BDC1
:100370000AEF1FE021EB0000000000002A95D9F7EA
:100380001A950000B9F70A9500000000000000006F
:100390000000000071F70AEF1FE021EB00000000F1
:1003A00000002A95D9F71A950000B9F70A950000C0
:1003B0000000000000000000000071F704E603BD2B
:0203C000BCCFB0
:00000001FF
